:020000040800F2
:100000000000022095520008D9520008D952000879
:10001000D9520008D9520008D95200080000000047
:10002000000000000000000000000000D95200089D
:10003000D952000800000000D9520008D952000827
:10004000D9520008D9520008D9520008D9520008E4
:10005000D9520008D9520008D9520008D9520008D4
:10006000D9520008D9520008D9520008D9520008C4
:10007000D9520008D9520008D9520008D9520008B4
:10008000D9520008D9520008D9520008D9520008A4
:10009000D9520008D9520008D9520008D952000894
:1000A000D9520008D9520008D9520008D952000884
:1000B00069520008D9520008D9520008D9520008E4
:1000C000D9520008D9520008D9520008D952000864
:1000D000D9520008D9520008D9520008D952000854
:1000E000D9520008D9520008D9520008D952000844
:1000F000D9520008D9520008D9520008D952000834
:10010000D9520008D9520008D9520008D952000823
:10011000D9520008D9520008D9520008D952000813
:10012000D9520008D9520008D9520008D952000803
:10013000D9520008D9520008D9520008D9520008F3
:10014000D9520008D9520008D9520008D9520008E3
:10015000D9520008D9520008D9520008D9520008D3
:10016000D9520008D9520008D9520008D9520008C3
:10017000D9520008D9520008D9520008D9520008B3
:08018000D9520008D952000811
:1001880080B582B000AF78607A680023C4F20203B9
:100198009A4208D10120012103F0D4F9012000215D
:1001A80003F0D0F980E07A684FF48063C4F2020368
:1001B8009A4208D10220012103F0C4F9022000214B
:1001C80003F0C0F970E07A684FF40063C4F20203E8
:1001D8009A4208D10420012103F0B4F90420002137
:1001E80003F0B0F960E07A684FF44063C4F20203A8
:1001F8009A4208D10820012103F0A4F9082000211F
:1002080003F0A0F950E07A684FF48053C4F2020377
:100218009A4208D11020012103F094F910200021FE
:1002280003F090F940E07A684FF4A053C4F2020357
:100238009A4208D12020012103F084F920200021CE
:1002480003F080F930E07A684FF4C053C4F2020337
:100258009A4208D14020012103F074F9402000217E
:1002680003F070F920E07A684FF4E053C4F2020317
:100278009A4208D18020012103F064F980200021EE
:1002880003F060F910E07A684FF40053C4F20203F7
:100298009A4209D14FF48070012103F053F94FF4C9
:1002A8008070002103F04EF90837BD4680BD00BFBD
:1002B80080B487B000AF7860396000237B61002389
:1002C8003B610023FB6000237B6176E07B690122B0
:1002D80002FA03F33B613B681A683B691340FB6011
:1002E800FA683B699A4265D17B681A687B695B004A
:1002F800032101FA03F3DB431A407B681A607B6829
:100308001A683B681B7919467B695B0001FA03F39D
:100318001A437B681A603B681B79012B03D03B6842
:100328001B79022B2ED17B689A687B695B000321BD
:1003380001FA03F3DB431A407B689A607B689A688A
:100348003B685B7919467B695B0001FA03F31A4342
:100358007B689A607B685A687B699BB2012101FAC5
:1003680003F3DB431A407B685A607B685A683B6832
:100378009B7919467B699BB201FA03F39BB21A4336
:100388007B685A607B68DA687B699BB25B000321F3
:1003980001FA03F3DB431A407B68DA607B68DA68AA
:1003A8003B68DB7919467B695B0001FA03F31A4362
:1003B8007B68DA607B6901337B617B690F2B85D9A8
:1003C8001C37BD465DF8047B704700BF80B483B01E
:1003D80000AF78607B684FF6FF721A607B68002276
:1003E8001A717B6800225A717B6800229A717B68B7
:1003F8000022DA710C37BD465DF8047B704700BFF8
:1004080080B485B000AF78600B467B804FF48033B2
:10041800FB607A88FB681343FB60FA687B68DA61E3
:100428007A887B68DA61FA687B68DA617B68DB69FD
:10043800FB607B68DB69FB601437BD465DF8047BB5
:10044800704700BF80B485B000AF78600B467B80F2
:100458000023FB737B681A697B881340002B02D04A
:100468000123FB7301E00023FB73FB7B1846143761
:10047800BD465DF8047B704780B483B000AF7860F8
:100488007B681B699BB218460C37BD465DF8047B38
:10049800704700BF80B485B000AF78600B467B80A2
:1004A8000023FB737B685A697B881340002B02D0BA
:1004B8000123FB7301E00023FB73FB7B1846143711
:1004C800BD465DF8047B704780B483B000AF7860A8
:1004D8007B685B699BB218460C37BD465DF8047BA8
:1004E800704700BF80B483B000AF78600B467B8054
:1004F8007B687A881A830C37BD465DF8047B7047A1
:1005080080B483B000AF78600B467B807B687A88C4
:100518005A830C37BD465DF8047B704780B483B0BE
:1005280000AF786013460A467A807B707B78002B90
:1005380007D07B88012202FA03F39AB27B685A83B8
:1005480006E07B88012202FA03F39AB27B681A83D9
:100558000C37BD465DF8047B704700BF80B483B09C
:1005680000AF78600B467B807A887B685A610C37CD
:10057800BD465DF8047B704780B483B000AF7860F7
:100588000B467B807B685A697B885A407B685A6136
:100598000C37BD465DF8047B704700BF80B485B05A
:1005A80000AF786013460A467A807B700023FB60B0
:1005B8000023BB607A787B8803F007039B0002FA6C
:1005C80003F3FB607B88DB089BB21A467B88DB0859
:1005D8009BB219467B68083153F821107B8803F0D9
:1005E80007039B000F2000FA03F3DB4319407B68E5
:1005F800083243F822107B88DB089BB21A467B68D6
:10060800083253F82220FB681343BB607B88DB0861
:100618009BB21A467B680832B96843F8221014372F
:10062800BD465DF8047B704780B500AF40200121CE
:1006380002F0B0FF4020002102F0ACFF80BD00BFF7
:1006480080B483B000AF0346FB71FB79002B0CD05C
:100658004FF40063C5F206034FF40062C5F20602C8
:10066800126842F004021A600BE04FF40063C5F20E
:1006780006034FF40062C5F20602126822F0040273
:100688001A600C37BD465DF8047B704780B400AF34
:100698004FF40063C5F206039B681846BD465DF833
:1006A800047B704780B483B000AF0346FB71FB79CD
:1006B800002B0CD04FF40063C5F206034FF4006220
:1006C800C5F20602126842F008021A600BE04FF405
:1006D8000063C5F206034FF40062C5F20602126811
:1006E80022F008021A600C37BD465DF8047B70479B
:1006F80080B485B000AF0346FB710023FB734FF451
:100708000063C5F206035A68FB791340002B02D038
:100718000123FB7301E00023FB73FB7B18461437AE
:10072800BD465DF8047B704780B483B000AF0346D4
:10073800FB714FF40063C5F20603FA791201D24344
:100748005A600C37BD465DF8047B704780B485B0AD
:1007580000AF0346FB710023FB734FF40063C5F23F
:1007680006035A68FB791340002B02D00123FB7360
:1007780001E00023FB73FB7B18461437BD465DF888
:10078800047B704780B483B000AF0346FB714FF41D
:100798000063C5F20603FA79D243D2B25A600C3725
:1007A800BD465DF8047B704780B582B000AF7860C5
:1007B8007A680023C4F201039A4208D1012001217A
:1007C80002F060FF0120002102F05CFFD3E07B68AB
:1007D800B3F1804F08D10120012102F02BFF012045
:1007E800002102F027FFC6E07A684FF48063C4F264
:1007F80000039A4208D10220012102F01BFF0220C7
:10080800002102F017FFB6E07A684FF40063C4F2E3
:1008180000039A4208D10420012102F00BFF0420B2
:10082800002102F007FFA6E07A684FF44063C4F2A3
:1008380000039A4208D10820012102F0FBFE08209B
:10084800002102F0F7FE96E07A684FF48053C4F274
:1008580000039A4208D11020012102F0EBFE10207B
:10086800002102F0E7FE86E07A684FF4A053C4F254
:1008780000039A4208D12020012102F0DBFE20204B
:10088800002102F0D7FE76E07A684FF48063C4F264
:1008980001039A4208D10220012102F0F3FE02204E
:1008A800002102F0EFFE66E07A684FF48043C4F25C
:1008B80001039A420AD14FF48030012102F0E2FE8E
:1008C8004FF48030002102F0DDFE54E07A684FF4E6
:1008D8008843C4F201039A420AD14FF4003001213F
:1008E80002F0D0FE4FF40030002102F0CBFE42E0CF
:1008F8007A684FF49043C4F201039A420AD14FF444
:100908008020012102F0BEFE4FF48020002102F079
:10091800B9FE30E07A684FF4C053C4F200039A423B
:1009280008D14020012102F085FE4020002102F07C
:1009380081FE20E07A684FF4E053C4F200039A4243
:1009480008D18020012102F075FE8020002102F0EC
:1009580071FE10E07A684FF40053C4F200039A4223
:1009680009D14FF48070012102F064FE4FF48070C9
:10097800002102F05FFE0837BD4680BD80B485B017
:1009880000AF786039600023FB817B681B88FB819E
:100998007A680023C4F201039A421FD07A684FF4A0
:1009A8008063C4F201039A4218D07B68B3F1804F88
:1009B80014D07A684FF48063C4F200039A420DD0D1
:1009C8007A684FF40063C4F200039A4206D07A684A
:1009D8004FF44063C4F200039A4208D1FB8923F024
:1009E8007003FB813B685A88FB891343FB817A6853
:1009F8004FF48053C4F200039A420FD07A684FF440
:100A0800A053C4F200039A4208D0FB8923F4407330
:100A1800FB813B681A89FB891343FB817B68FA8950
:100A28001A803B685A687B68DA623B681A887B6878
:100A38001A857A680023C4F201039A4206D07A68BC
:100A48004FF48063C4F201039A4204D13B689B7A55
:100A58001A467B681A867B6801229A821437BD463B
:100A68005DF8047B704700BF80B483B000AF786046
:100A78007B684FF0FF325A607B6800221A807B68DF
:100A880000221A817B6800225A807B6800229A72B1
:100A98000C37BD465DF8047B704700BF80B483B057
:100AA80000AF786013460A467A803B807B687A8874
:100AB8001A857B683A889A820C37BD465DF8047BB4
:100AC800704700BF80B485B000AF78600B467B806C
:100AD8000023FB817B681B88FB81FB8923F0700363
:100AE800FB81FA897B881343FB817B68FA891A802A
:100AF8001437BD465DF8047B704700BF80B483B0EF
:100B080000AF786039607B683A685A620C37BD4636
:100B18005DF8047B704700BF80B483B000AF786095
:100B280039607B683A68DA620C37BD465DF8047B49
:100B3800704700BF80B483B000AF78607B685B6AA1
:100B480018460C37BD465DF8047B704780B483B007
:100B580000AF78607B681B8D9BB218460C37BD468A
:100B68005DF8047B704700BF80B483B000AF786045
:100B78000B46FB70FB78002B08D07B681B889BB268
:100B880043F002039AB27B681A8007E07B681B88EF
:100B98009BB223F002039AB27B681A800C37BD46D9
:100BA8005DF8047B704700BF80B483B000AF786005
:100BB8000B467B807B88002B08D07B681B889BB208
:100BC80043F004039AB27B681A8007E07B681B88AD
:100BD8009BB223F004039AB27B681A800C37BD4697
:100BE8005DF8047B704700BF80B483B000AF7860C5
:100BF8000B46FB70FB78002B08D07B681B889BB2E8
:100C080043F080039AB27B681A8007E07B681B88F0
:100C18009BB223F080039AB27B681A800C37BD46DA
:100C28005DF8047B704700BF80B483B000AF786084
:100C38000B467B807B681B889BB223F008039AB223
:100C48007B681A807B681B889AB27B8813439AB2A8
:100C58007B681A800C37BD465DF8047B704700BF7F
:100C680080B483B000AF78600B467B807B681B88BC
:100C78009BB223F440739AB27B681A807B681B8806
:100C88009AB27B8813439AB27B681A800C37BD46A8
:100C98005DF8047B704700BF80B483B000AF786014
:100CA8000B46FB70FB78002B08D07B681B889BB237
:100CB80043F001039AB27B681A8007E07B681B88BF
:100CC8009BB223F001039AB27B681A800C37BD46A9
:100CD8005DF8047B704700BF80B485B000AF7860D2
:100CE800396000237B810023FB810023BB817B6863
:100CF8001B8C9BB223F001039AB27B681A847B6831
:100D08001B8CFB817B689B88BB817B681B8B7B81F1
:100D18007B8923F070037B817B8923F003037B812C
:100D28003B681A887B8913437B81FB8923F0020384
:100D3800FB813B689A89FB891343FB813B685A888E
:100D4800FB891343FB817A680023C4F201039A42AA
:100D580006D07A684FF48063C4F201039A4223D123
:100D6800FB8923F00803FB813B68DA89FB8913437D
:100D7800FB81FB8923F00403FB813B689A88FB898C
:100D88001343FB81BB8923F48073BB81BB8923F4A4
:100D98000073BB813B681A8ABB891343BB813B68DC
:100DA8005A8ABB891343BB817B68BA899A807B685E
:100DB8007A891A833B689A687B685A637B68FA89E0
:100DC8001A841437BD465DF8047B704780B485B03B
:100DD80000AF7860396000237B810023FB8100230A
:100DE800BB817B681B8C9BB223F010039AB27B6893
:100DF8001A847B681B8CFB817B689B88BB817B6822
:100E08001B8B7B817B8923F4E0437B817B8923F4E3
:100E180040737B813B681B881B029AB27B89134312
:100E28007B81FB8923F02003FB813B689B891B01A5
:100E38009AB2FB891343FB813B685B881B019AB21A
:100E4800FB891343FB817A680023C4F201039A42A9
:100E580006D07A684FF48063C4F201039A422BD11A
:100E6800FB8923F08003FB813B68DB891B019AB275
:100E7800FB891343FB81FB8923F04003FB813B681B
:100E88009B881B019AB2FB891343FB81BB8923F41E
:100E98008063BB81BB8923F40063BB813B681B8AE9
:100EA8009B009AB2BB891343BB813B685B8A9B005A
:100EB8009AB2BB891343BB817B68BA899A807B68E5
:100EC8007A891A833B689A687B689A637B68FA898F
:100ED8001A841437BD465DF8047B704780B485B02A
:100EE80000AF7860396000237B810023FB810023F9
:100EF800BB817B681B8C9BB223F480739AB27B689E
:100F08001A847B681B8CFB817B689B88BB817B6810
:100F18009B8B7B817B8923F070037B817B8923F00A
:100F280003037B813B681A887B8913437B81FB8998
:100F380023F40073FB813B689B891B029AB2FB89EF
:100F48001343FB813B685B881B029AB2FB891343FE
:100F5800FB817A680023C4F201039A4206D07A68BA
:100F68004FF48063C4F201039A422BD1FB8923F426
:100F78000063FB813B68DB891B029AB2FB89134340
:100F8800FB81FB8923F48063FB813B689B881B0200
:100F98009AB2FB891343FB81BB8923F48053BB813D
:100FA800BB8923F40053BB813B681B8A1B019AB29F
:100FB800BB891343BB813B685B8A1B019AB2BB891F
:100FC8001343BB817B68BA899A807B687A899A8344
:100FD8003B689A687B68DA637B68FA891A841437F5
:100FE800BD465DF8047B704780B485B000AF78607B
:100FF80039600023BB8100237B810023FB817B6850
:101008001B8C9BB223F480539AB27B681A847B684A
:101018001B8C7B817B689B88FB817B689B8BBB815E
:10102800BB8923F4E043BB81BB8923F44073BB81B4
:101038003B681B881B029AB2BB891343BB817B891F
:1010480023F400537B813B689B891B039AB27B89FD
:1010580013437B813B685B881B039AB27B891343EC
:101068007B817A680023C4F201039A4206D07A6829
:101078004FF48063C4F201039A420AD1FB8923F436
:101088008043FB813B681B8A9B019AB2FB8913430F
:10109800FB817B68FA899A807B68BA899A833B6866
:1010A8009A687B681A647B687A891A841437BD4603
:1010B8005DF8047B704700BF80B483B000AF7860F0
:1010C8007B6800221A807B6800225A807B68002295
:1010D8009A807B6800229A607B6800229A817B68EC
:1010E8000022DA817B6800221A827B6800225A82F9
:1010F8000C37BD465DF8047B704700BF80B485B0EF
:1011080000AF786013460A467A803B800023FB6074
:1011180000237B817B68FB60FB681833FB607B885E
:10112800012202FA03F37B817B681B8C9AB27B89CC
:10113800DB439BB213409AB27B681A847B88002BEE
:1011480002D07B88082B13D17B885B089BB2FA6896
:101158001344FB60FA68FB6819684FF68F730B40FD
:101168001360FB68FA6811683A880A431A6016E047
:101178007B88043B9BB25B089BB2FA681344FB6014
:10118800FA68FB68196848F6FF730B401360FB6840
:10119800FA6811683A88120292B20A431A60143740
:1011A800BD465DF8047B704780B483B000AF7860BB
:1011B80039607B683A685A630C37BD465DF8047B32
:1011C800704700BF80B483B000AF786039607B6837
:1011D8003A689A630C37BD465DF8047B704700BFD8
:1011E80080B483B000AF786039607B683A68DA63AE
:1011F8000C37BD465DF8047B704700BF80B483B0F0
:1012080000AF786039607B683A681A640C37BD466D
:101218005DF8047B704700BF80B485B000AF78608C
:101228000B467B800023FB817B681B8BFB81FB8942
:1012380023F07003FB81FA897B881343FB817B6869
:10124800FA891A831437BD465DF8047B704700BFDE
:1012580080B485B000AF78600B467B800023FB81AB
:101268007B681B8BFB81FB8923F4E043FB817B8834
:101278001B029AB2FB891343FB817B68FA891A83A4
:101288001437BD465DF8047B704700BF80B485B055
:1012980000AF78600B467B800023FB817B689B8BCB
:1012A800FB81FB8923F07003FB81FA897B88134358
:1012B800FB817B68FA899A831437BD465DF8047B05
:1012C800704700BF80B485B000AF78600B467B8064
:1012D8000023FB817B689B8BFB81FB8923F4E04324
:1012E800FB817B881B029AB2FB891343FB817B68D5
:1012F800FA899A831437BD465DF8047B704700BFAE
:1013080080B485B000AF78600B467B800023FB81FA
:101318007B681B8BFB81FB8923F00803FB81FA891F
:101328007B881343FB817B68FA891A831437BD468F
:101338005DF8047B704700BF80B485B000AF78606B
:101348000B467B800023FB817B681B8BFB81FB8921
:1013580023F40063FB817B881B029AB2FB89134349
:10136800FB817B68FA891A831437BD465DF8047BD4
:10137800704700BF80B485B000AF78600B467B80B3
:101388000023FB817B689B8BFB81FB8923F008038F
:10139800FB81FA897B881343FB817B68FA899A83EE
:1013A8001437BD465DF8047B704700BF80B485B034
:1013B80000AF78600B467B800023FB817B689B8BAA
:1013C800FB81FB8923F40063FB817B881B029AB2B3
:1013D800FB891343FB817B68FA899A831437BD46DE
:1013E8005DF8047B704700BF80B485B000AF7860BB
:1013F8000B467B800023FB817B681B8BFB81FB8971
:1014080023F00403FB81FA897B881343FB817B6803
:10141800FA891A831437BD465DF8047B704700BF0C
:1014280080B485B000AF78600B467B800023FB81D9
:101438007B681B8BFB81FB8923F48063FB817B88A2
:101448001B029AB2FB891343FB817B68FA891A83D2
:101458001437BD465DF8047B704700BF80B485B083
:1014680000AF78600B467B800023FB817B689B8BF9
:10147800FB81FB8923F00403FB81FA897B881343F2
:10148800FB817B68FA899A831437BD465DF8047B33
:10149800704700BF80B485B000AF78600B467B8092
:1014A8000023FB817B689B8BFB81FB8923F4806392
:1014B800FB817B881B029AB2FB891343FB817B6803
:1014C800FA899A831437BD465DF8047B704700BFDC
:1014D80080B485B000AF78600B467B800023FB8129
:1014E8007B681B8BFB81FB8923F08003FB81FA89D6
:1014F8007B881343FB817B68FA891A831437BD46BE
:101508005DF8047B704700BF80B485B000AF786099
:101518000B467B800023FB817B681B8BFB81FB894F
:10152800C3F30E03FB817B881B029AB2FB8913432A
:10153800FB817B68FA891A831437BD465DF8047B02
:10154800704700BF80B485B000AF78600B467B80E1
:101558000023FB817B689B8BFB81FB8923F0800345
:10156800FB81FA897B881343FB817B68FA899A831C
:101578001437BD465DF8047B704700BF80B485B062
:1015880000AF78600B467B800023FB817B689B8BD8
:10159800FB81FB89C3F30E03FB817B881B029AB294
:1015A800FB891343FB817B68FA899A831437BD460C
:1015B8005DF8047B704700BF80B485B000AF7860E9
:1015C8000B467B800023FB817B681B8CFB81FB899E
:1015D80023F00203FB81FA897B881343FB817B6834
:1015E800FA891A841437BD465DF8047B704700BF3A
:1015F80080B485B000AF78600B467B800023FB8108
:101608007B681B8CFB81FB8923F00803FB81FA892B
:101618007B881343FB817B68FA891A841437BD469B
:101628005DF8047B704700BF80B485B000AF786078
:101638000B467B800023FB817B681B8CFB81FB892D
:1016480023F02003FB817B881B019AB2FB8913439B
:10165800FB817B68FA891A841437BD465DF8047BE0
:10166800704700BF80B485B000AF78600B467B80C0
:101678000023FB817B681B8CFB81FB8923F08003A3
:10168800FB817B881B019AB2FB891343FB817B6832
:10169800FA891A841437BD465DF8047B704700BF89
:1016A80080B485B000AF78600B467B800023FB8157
:1016B8007B681B8CFB81FB8923F40073FB817B888F
:1016C8001B029AB2FB891343FB817B68FA891A844F
:1016D8001437BD465DF8047B704700BF80B485B001
:1016E80000AF78600B467B800023FB817B681B8CF6
:1016F800FB81FB8923F40063FB817B881B029AB280
:10170800FB891343FB817B68FA891A841437BD4629
:101718005DF8047B704700BF80B485B000AF786087
:101728000B467B800023FB817B681B8CFB81FB893C
:1017380023F40053FB817B881B039AB2FB89134374
:10174800FB817B68FA891A841437BD465DF8047BEF
:10175800704700BF80B485B000AF786013460A4672
:101768007A803B800023FB817B88012202FA03F305
:10177800FB817B681B8C9AB2FB89DB439BB21340CD
:101788009AB27B681A847B681B8C9AB239887B88EA
:1017980001FA03F39BB213439AB27B681A84143795
:1017A800BD465DF8047B704780B485B000AF7860B3
:1017B80013460A467A803B800023FB817B880422FB
:1017C80002FA03F3FB817B681B8C9AB2FB89DB432B
:1017D8009BB213409AB27B681A847B681B8C9AB2BE
:1017E80039887B8801FA03F39BB213439AB27B686A
:1017F8001A841437BD465DF8047B704780B582B003
:1018080000AF786039603B681B88002B0FD13B68BC
:1018180059883B689A883B681B89786800F092FC75
:101828003B68DB887868194600F0E0F836E03B68EA
:101838001B88042B0FD13B6859883B689A883B6802
:101848001B89786800F0BAFC3B68DB887868194621
:1018580000F0E8F822E03B681B88082B0FD13B68B2
:1018680059883B689A883B681B89786800F0ECFCCB
:101878003B68DB887868194600F0F2F80EE03B68B0
:1018880059883B689A883B681B89786800F01EFD78
:101898003B68DB887868194600F0FEF80837BD46D3
:1018A80080BD00BF80B483B000AF78607B68002241
:1018B8001A807B6800225A807B6801229A807B68A4
:1018C8000022DA807B6800221A810C37BD465DF859
:1018D800047B704780B584B000AF7860396000231E
:1018E800FB810123BB813B685B88002B02D102236B
:1018F800FB8101E00023FB813B689B88012B02D11F
:101908000223BB8101E00123BB813B681B88002BBC
:101918001CD13B6859883B689A883B681B89786862
:1019280000F010FC3B68DB887868194600F05EF828
:101938003B681B89F989BA89786800F03FFC3B68E5
:10194800DB887868194600F06DF81BE03B68598819
:101958003B689A883B681B89786800F02FFC3B68D5
:10196800DB887868194600F05DF83B681B89F989BF
:10197800BA89786800F0E6FB3B68DB887868194626
:1019880000F034F81037BD4680BD00BF80B483B086
:1019980000AF78607B685B6B18460C37BD465DF816
:1019A800047B704780B483B000AF78607B689B6B22
:1019B80018460C37BD465DF8047B704780B483B089
:1019C80000AF78607B68DB6B18460C37BD465DF866
:1019D800047B704780B483B000AF78607B681B6C71
:1019E80018460C37BD465DF8047B704780B483B059
:1019F80000AF78600B467B807B681B8B9BB223F023
:101A08000C039AB27B681A837B681B8B9AB27B881B
:101A180013439AB27B681A830C37BD465DF8047B82
:101A2800704700BF80B483B000AF78600B467B80FE
:101A38007B681B8B9BB223F440639AB27B681A8342
:101A48007B681B8B9AB27B881B029BB213439AB2AA
:101A58007B681A830C37BD465DF8047B704700BF6E
:101A680080B483B000AF78600B467B807B689B8B2B
:101A78009BB223F00C039AB27B689A837B689B8B9A
:101A88009AB27B8813439AB27B689A830C37BD4617
:101A98005DF8047B704700BF80B483B000AF786006
:101AA8000B467B807B689B8B9BB223F440639AB286
:101AB8007B689A837B689B8B9AB27B881B029BB25C
:101AC80013439AB27B689A830C37BD465DF8047B52
:101AD800704700BF80B483B000AF786039603B685E
:101AE8001A883B685B8813439AB23B689B88134308
:101AF8009AB23B68DB8813439AB23B681B8913434D
:101B08009AB23B685B8913439AB23B689B8913433B
:101B18009AB27B68A3F844200C37BD465DF8047B75
:101B2800704700BF80B483B000AF78607B68002244
:101B38001A807B6800225A807B6800229A807B6822
:101B48000022DA807B6800221A817B6800225A8191
:101B58007B6800229A810C37BD465DF8047B70478C
:101B680080B483B000AF78600B46FB70FB78002B25
:101B78000CD07B68B3F844309BB26FEA43436FEAFA
:101B880053439AB27B68A3F8442009E07B68B3F812
:101B980044309BB2C3F30E039AB27B68A3F8442087
:101BA8000C37BD465DF8047B704700BF80B483B036
:101BB80000AF78600B46FB70FB78002B08D07B6881
:101BC8009B889BB243F004039AB27B689A8007E033
:101BD8007B689B889BB223F004039AB27B689A8047
:101BE8000C37BD465DF8047B704700BF80B483B0F6
:101BF80000AF78600B46FB70FB78002B08D07B6841
:101C08009B889BB243F001039AB27B689A8007E0F5
:101C18007B689B889BB223F001039AB27B689A8009
:101C28000C37BD465DF8047B704700BF80B483B0B5
:101C380000AF786013460A467A807B707B78002B69
:101C480008D07B689B899AB27B8813439AB27B68D9
:101C58009A8109E07B689B899AB27B88DB439BB2B7
:101C680013409AB27B689A810C37BD465DF8047BB5
:101C7800704700BF80B483B000AF78600B467B80AC
:101C88007B687A889A820C37BD465DF8047B70477A
:101C980080B485B000AF78600B467B800023FB736F
:101CA8007B681B8A9AB27B8813409BB2002B02D0B8
:101CB8000123FB7301E00023FB73FB7B18461437F9
:101CC800BD465DF8047B704780B483B000AF786090
:101CD8000B467B807B88DB439AB27B681A820C3781
:101CE800BD465DF8047B704780B485B000AF78606E
:101CF8000B467B800023FB730023BB8100237B8181
:101D08007B681B8A9AB27B881340BB817B689B895E
:101D18009AB27B8813407B81BB89002B05D07B89D5
:101D2800002B02D00123FB7301E00023FB73FB7B34
:101D380018461437BD465DF8047B704780B483B0FD
:101D480000AF78600B467B807B88DB439AB27B6868
:101D58001A820C37BD465DF8047B704780B483B0A7
:101D680000AF786013460A467A803B807A883B88C1
:101D780013439AB27B68A3F848200C37BD465DF838
:101D8800047B704780B483B000AF786013460A467E
:101D98007A807B707B78002B08D07B689B899AB20D
:101DA8007B8813439AB27B689A8109E07B689B8998
:101DB8009AB27B88DB439BB213409AB27B689A81C4
:101DC8000C37BD465DF8047B704700BF80B483B014
:101DD80000AF78600B46FB70FB78002B08D07B685F
:101DE8009B889BB243F008039AB27B689A8007E00D
:101DF8007B689B889BB223F008039AB27B689A8021
:101E08000C37BD465DF8047B704700BF80B483B0D3
:101E180000AF78607B681B899BB223F007039AB2F6
:101E28007B681A810C37BD465DF8047B704700BF9C
:101E380080B582B000AF78600B467B807B8878687D
:101E4800194600F075F87B681B899BB243F00703BD
:101E58009AB27B681A810837BD4680BD80B584B0C8
:101E680000AFF86079813A81FB807B89602B07D1CC
:101E78003A89FB88F8681146012200F09FF906E0CC
:101E88003A89FB88F8681146012200F05BF97B89E2
:101E9800F868194600F04CF8FB681B899BB243F0C0
:101EA80007039AB2FB681A811037BD4680BD00BF90
:101EB80080B586B000AFF86079813A81FB80002355
:101EC800FB8279893A89FB88F86800F0A1F8FB68F9
:101ED8001B89FB82FB8A23F00703FB82FB8A43F002
:101EE8000703FB82FB8A23F07003FB82FB8A43F023
:101EF8007003FB82FB68FA8A1A811837BD4680BDD9
:101F080080B584B000AFF86079813A81FB80798927
:101F18003A89FB88F86800F07BF8FB681B899BB25C
:101F280043F480439AB2FB681A811037BD4680BDDE
:101F380080B485B000AF78600B467B800023FB81BE
:101F48007B681B89FB81FB8923F07003FB81FA897D
:101F58007B881343FB817B68FA891A811437BD4655
:101F68005DF8047B704700BF80B483B000AF786031
:101F78000B467B807B689B889BB223F070039AB2E8
:101F88007B689A807B689B889AB27B8813439AB255
:101F98007B689A800C37BD465DF8047B704700BFAC
:101FA80080B483B000AF78600B467B807B681B8968
:101FB8009BB223F007039AB27B681A817B681B895E
:101FC8009AB27B8813439AB27B681A810C37BD4654
:101FD8005DF8047B704700BF80B483B000AF7860C1
:101FE8000B467B807B681B899BB223F080039AB2E7
:101FF8007B681A817B681B899AB27B8813439AB2E3
:102008007B681A810C37BD465DF8047B704700BFBA
:1020180080B487B000AFF86079813A81FB800023F3
:10202800FB82FB681B89FB82FB8ADBB2FB82FB8895
:102038001B029AB23B8913439AB27B8913439AB223
:10204800FB8A1343FB82FB68FA8A1A811C37BD4658
:102058005DF8047B704700BF80B487B000AFF860BC
:1020680079813A81FB800023FB820023BB82002315
:102078007B82FB681B89FB82FB681B8BBB82FB682E
:102088001B8C7B82FB8A23F00703FB82FA8A7B89FD
:102098001343FB82BB8A23F4407323F00303BB8200
:1020A800BB8A43F4807343F00103BB827B8A23F02D
:1020B80022037B82FB881B019AB23B8913439AB2A5
:1020C8007B8A13437B82FB68FA8A1A81FB68BA8A87
:1020D8001A83FB687A8A1A841C37BD465DF8047B2C
:1020E800704700BF80B483B000AF78600B46FB70C8
:1020F800FB78002B08D07B689B889BB243F0800359
:102108009AB27B689A8007E07B689B889BB223F031
:1021180080039AB27B689A800C37BD465DF8047BD1
:10212800704700BF80B483B000AF78600B467B80F7
:102138007B687A88A3F850200C37BD465DF8047B8D
:10214800704700BF80B487B000AFF86079813A81EA
:10215800FB800023FB820023BB82FB681B8C9BB2A5
:1021680023F001039AB2FB681A84FB681B8BFB827D
:10217800FB681B8CBB82FB8A23F0F303FB82FB8882
:102188001B019AB23B8913439AB2FB8A1343FB8221
:10219800BB8A23F00A03BB827A89BB8A13439BB2AA
:1021A80043F00103BB82FB68FA8A1A83FB68BA8A88
:1021B8001A841C37BD465DF8047B704780B487B02D
:1021C80000AFF86079813A81FB800023FB8200230D
:1021D800BB8200237B82FB681B8C9BB223F010031D
:1021E8009AB2FB681A84FB681B8BFB82FB681B8C0A
:1021F800BB827B891B017B82FB8A23F440731B050E
:102208001B0DFB82FB881B039AB2FB8A1343FB82DC
:102218003B891B029AB2FB8A1343FB82BB8A23F0D9
:10222800A003BB827A8ABB8A13439BB243F0100394
:10223800BB82FB68FA8A1A83FB68BA8A1A841C373D
:10224800BD465DF8047B704780B487B000AFF86086
:1022580079813A81FB800023FB820023BB82002323
:102268007B82FB681B8C9BB223F480739AB2FB6859
:102278001A84FB689B8BFB82FB681B8CBB827B8967
:102288001B027B82FB8A23F0F303FB82FB881B0182
:102298009AB23B8913439AB2FB8A1343FB82BB8AE7
:1022A80023F42063BB827A8ABB8A13439BB243F42C
:1022B8008073BB82FB68FA8A9A83FB68BA8A1A849D
:1022C8001C37BD465DF8047B704700BF80B487B0FB
:1022D80000AFF86079813A81FB800023FB820023FC
:1022E800BB8200237B82FB681B8C9BB223F4805348
:1022F8009AB2FB681A84FB689B8BFB82FB681B8C79
:10230800BB827B891B037B82FB8A23F440731B05FA
:102318001B0DFB823B891B029AB2FB8A1343FB828B
:10232800FB881B039AB2FB8A1343FB82BB8A23F404
:1023380000535B045B0CBB827A8ABB8A13439BB253
:1023480043F48053BB82FB68FA8A9A83FB68BA8A93
:102358001A841C37BD465DF8047B704780B582B08F
:1023680000AF78607A684FF4A843C4F200039A4239
:102378000AD14FF40010012101F05CF94FF400106C
:10238800002101F057F922E07A684FF4B043C4F213
:1023980000039A420AD14FF48000012101F04AF962
:1023A8004FF48000002101F045F910E07A684FF4FD
:1023B800B843C4F200039A4209D14FF40000012146
:1023C80001F038F94FF40000002101F033F9083723
:1023D800BD4680BD80B58AB000AF78603960002303
:1023E800FB8400237B840423BB844FF49053C0F206
:1023F8007A03FB617B689B88FB84FB8C23F03F039B
:10240800FB8407F10C03184600F098FE7B69FB611A
:10241800FA694DF68363C4F21B33A3FB02139B0CCA
:102428007B84FA8C7B8C1343FB847B68FA8C9A80C0
:102438007B681B889BB223F001039AB27B681A80E1
:102448000023FB843B681A6848F2A063C0F20103CA
:102458009A4215D83B681B685B00FA69B2FBF3F334
:10246800BB84BB8C032B01D80423BB84FA8CBB8CA4
:102478001343FB847B8C01339AB27B681A8443E054
:102488003B68DA884BF6FF739A4209D13B681A68B1
:1024980013465B001344FA69B2FBF3F3BB840EE006
:1024A8003B681A6813469B0013449A001344FA6960
:1024B800B2FBF3F3BB84BB8C43F48043BB84BB8C7B
:1024C800C3F30B03002B03D1BB8C43F00103BB8484
:1024D800BA8CFB8C13439BB26FEA43436FEA5343B6
:1024E800FB847B8C4FF4967202FB03F244F6D353C1
:1024F800C1F2620383FB02139911D317CB1A9BB263
:1025080001339AB27B681A847B68FA8C9A837B6859
:102518001B889BB243F001039AB27B681A807B68E0
:102528001B88FB84FB8C23F4816323F00203FB8468
:102538003B689A883B685B8913439AB2FB8C1343C8
:10254800FB847B68FA8C1A803B689A893B681B89F4
:1025580013439AB27B681A812837BD4680BD00BFF5
:1025680080B483B000AF78607B6841F288321A602B
:102578007B6800229A807B684BF6FF72DA807B6862
:1025880000221A817B6800225A817B684FF48042BE
:102598009A810C37BD465DF8047B704780B483B0E0
:1025A80000AF78600B46FB70FB78002B08D07B6887
:1025B8001B889BB243F001039AB27B681A8007E03C
:1025C8007B681B889BB223F001039AB27B681A8050
:1025D8000C37BD465DF8047B704700BF80B483B0FC
:1025E80000AF78600B46FB70FB78002B08D07B6847
:1025F8001B889BB243F480739AB27B681A8007E009
:102608007B681B889BB223F480739AB27B681A801C
:102618000C37BD465DF8047B704700BF80B483B0BB
:1026280000AF78600B46FB70FB78002B08D07B6806
:102638001B889BB243F400739AB27B681A8007E048
:102648007B681B889BB223F400739AB27B681A805C
:102658000C37BD465DF8047B704700BF80B483B07B
:1026680000AF786013460A46FA70BB70BB78002B3F
:1026780004D0FB7843F00103FB7003E0FB7823F000
:102688000103FB70FB789AB27B681A820C37BD464F
:102698005DF8047B704700BF80B483B000AF7860FA
:1026A8000B46FB70FB78002B08D07B681B889BB21D
:1026B80043F480639AB27B681A8007E07B681B88C2
:1026C8009BB223F480639AB27B681A800C37BD46AC
:1026D8005DF8047B704700BF80B485B000AF7860B8
:1026E8000B46FB700023FB817B689B89FB81FB8980
:1026F80023F0FE03FB81FB789BB203F0FE039AB242
:10270800FB8913439BB2FB817B68FA899A81143752
:10271800BD465DF8047B704780B483B000AF786035
:102728000B46FB70FB78002B08D07B689B899BB21B
:1027380043F001039AB27B689A8107E07B689B8922
:102748009BB223F001039AB27B689A810C37BD468D
:102758005DF8047B704700BF80B483B000AF786039
:102768000B46FB70FB78002B08D07B681B889BB25C
:1027780043F040039AB27B681A8007E07B681B88A5
:102788009BB223F040039AB27B681A800C37BD468F
:102798005DF8047B704700BF80B483B000AF7860F9
:1027A8000B46FB70FB78002B0AD07B681B889BB21A
:1027B8006FEA43436FEA53439AB27B681A8007E093
:1027C8007B681B889BB2C3F30E039AB27B681A809E
:1027D8000C37BD465DF8047B704700BF80B483B0FA
:1027E80000AF78600B46FB70FB78002B08D17B6844
:1027F8001B889BB243F080039AB27B681A8007E07B
:102808007B681B889BB223F080039AB27B681A808E
:102818000C37BD465DF8047B704700BF80B483B0B9
:1028280000AF78600B467B807B88B3F5804F08D07B
:102838007B689B8B9BB223F480439AB27B689A8314
:1028480007E07B689B8B9BB243F480439AB27B681A
:102858009A830C37BD465DF8047B704780B483B01B
:1028680000AF78600B467B807B88B3F5006F08D19A
:102878007B681B889BB243F400639AB27B681A801A
:1028880007E07B681B889BB223F400639AB27B68DD
:102898001A800C37BD465DF8047B704780B483B05E
:1028A80000AF78600B467B807B88B3F5005F08D16A
:1028B8007B681B889BB243F400539AB27B681A80EA
:1028C80007E07B681B889BB223F400539AB27B68AD
:1028D8001A800C37BD465DF8047B704780B483B01E
:1028E80000AF78600B46FB70FB78002B08D07B6844
:1028F8001B889BB243F010039AB27B681A8007E0EA
:102908007B681B889BB223F010039AB27B681A80FD
:102918000C37BD465DF8047B704700BF80B483B0B8
:1029280000AF78600B46FB70FB789AB27B681A821E
:102938000C37BD465DF8047B704700BF80B483B098
:1029480000AF78607B681B8A9BB2DBB218460C37F5
:10295800BD465DF8047B704780B483B000AF7860F3
:102968000B46FB70FB78002B08D07B681B889BB25A
:1029780043F480539AB27B681A8007E07B681B880F
:102988009BB223F480539AB27B681A800C37BD46F9
:102998005DF8047B704700BF80B483B000AF7860F7
:1029A8000B467B807B88B3F5006F08D17B681B885A
:1029B8009BB243F400639AB27B681A8007E07B6895
:1029C8001B889BB223F400639AB27B681A800C3789
:1029D800BD465DF8047B704780B483B000AF786073
:1029E8000B46FB70FB78002B08D07B681B889BB2DA
:1029F80043F020039AB27B681A8007E07B681B8843
:102A08009BB223F020039AB27B681A800C37BD462C
:102A18005DF8047B704700BF80B483B000AF786076
:102A28007B681B8B9BB21B0A9BB2DBB218460C3728
:102A3800BD465DF8047B704780B483B000AF786012
:102A48000B46FB70FB78002B08D07B689B889BB2F9
:102A580043F400639AB27B689A8007E07B689B889E
:102A68009BB223F400639AB27B689A800C37BD4608
:102A78005DF8047B704700BF80B483B000AF786016
:102A88000B46FB70FB78002B08D07B689B889BB2B9
:102A980043F480539AB27B689A8007E07B689B88EE
:102AA8009BB223F480539AB27B689A800C37BD4658
:102AB8005DF8047B704700BF80B485B000AF7860D4
:102AC8000B46FB700023FB607B68FB60FA78FB68B1
:102AD8001344FB60FB681B889BB218461437BD463D
:102AE8005DF8047B704700BF80B483B000AF7860A6
:102AF80013460A467A807B707B78002B08D07B6867
:102B08009B889AB27B8813439AB27B689A8009E0C3
:102B18007B689B889AB27B88DB439BB213409AB24E
:102B28007B689A800C37BD465DF8047B704700BF10
:102B380080B487B000AF7860396000233B61002320
:102B4800FB600023BB600023FB757B689B8A9BB2FC
:102B5800FB607B681B8B9BB2BB60BB681B04BB60C4
:102B6800FA68BB68134323F07F433B613A693B68CB
:102B78001A403B689A4202D10123FB7501E0002309
:102B8800FB75FB7D18461C37BD465DF8047B704716
:102B980080B487B000AF786000237B6100233B617D
:102BA8000023FB607B689B8A9BB23B617B681B8B25
:102BB8009BB2FB60FB681B04FB603A69FB6813432C
:102BC80023F07F437B617B6918461C37BD465DF85F
:102BD800047B704780B487B000AF78603960002309
:102BE800FB7500233B610023FB607B68FB603B684F
:102BF8001B0F3B613B6823F07F433B603B69002B25
:102C080003D0FB681433FB6005E03B681B0C3B609A
:102C1800FB681833FB60FB681A683B681340002B9D
:102C280002D00123FB7501E00023FB75FB7D1846EC
:102C38001C37BD465DF8047B704700BF80B485B083
:102C480000AF786039600023FB603B6823F07F4366
:102C5800FB60FB689BB2DB439AB27B689A821437AD
:102C6800BD465DF8047B704780B485B000AF7860DE
:102C780039600023FB730023BB603B6803F0E0630B
:102C88001A0C7B689B889BB21340BB603B6823F09F
:102C98007F433B607B689B8A9BB21A463B68134024
:102CA800002B05D0BB68002B02D00123FB7301E089
:102CB8000023FB73FB7B18461437BD465DF8047B85
:102CC800704700BF80B485B000AF786039600023DA
:102CD800FB603B6823F07F43FB60FB689BB2DB43F0
:102CE8009AB27B689A821437BD465DF8047B7047B8
:102CF80080B400AF4FF46053C4F202034FF4605243
:102D0800C4F20202126842F001021A604FF46053E2
:102D1800C4F2020300229A604FF46053C4F2020323
:102D28004FF46052C4F20202126822F0847222F454
:102D380080321A604FF46053C4F2020343F2100267
:102D4800C2F200425A604FF46053C4F202034FF4D7
:102D58006052C4F20202126822F480221A604FF410
:102D68006053C4F202030022DA60BD465DF8047BBA
:102D7800704700BF80B483B000AF0346FB7143F6D1
:102D88000203C4F2020300221A7043F60203C4F2DB
:102D98000203FA791A700C37BD465DF8047B704758
:102DA80080B582B000AF00233B600023FB71002395
:102DB800BB71312000F084FD0346BB713B680133D1
:102DC8003B603B68B3F5A06F02D0BB79002BF0D015
:102DD800312000F075FD0346002B02D00123FB7162
:102DE80001E00023FB71FB7918460837BD4680BD1A
:102DF80080B485B000AF0346FB710023FB604FF43D
:102E08006053C4F202031B68FB60FB6823F0F803FD
:102E1800FB60FB79DB00FA681343FB604FF46053F7
:102E2800C4F20203FA681A601437BD465DF8047BE1
:102E3800704700BF80B483B000AF0346FB71002326
:102E4800C4F24723FA791A600C37BD465DF8047B53
:102E5800704700BF80B483B000AF0346FB7143F6F0
:102E68007003C4F2020300221A7043F67003C4F21E
:102E7800020300221A70FB79012B02D0042B07D021
:102E88000DE043F67003C4F2020301221A7006E053
:102E980043F67003C4F2020305221A7000BF0C3710
:102EA800BD465DF8047B704780B483B000AF03462D
:102EB800FB714FF46863C4F24723FA791A600C3740
:102EC800BD465DF8047B704780B485B000AFF860FC
:102ED800B9607A603B604FF46053C4F202037A68C9
:102EE8009101BA6811433A685208013A1204114331
:102EF800FA681143BA6912060A435A601437BD4684
:102F08005DF8047B704700BF80B483B000AF034610
:102F1800FB716023C4F24723FA791A600C37BD4667
:102F28005DF8047B704700BF80B483B000AF786061
:102F380039604FF46053C4F202037A6891013A6829
:102F480012070A43C3F884200C37BD465DF8047B9A
:102F5800704700BF80B483B000AF0346FB7168239D
:102F6800C4F24723FA791A600C37BD465DF8047B32
:102F7800704700BF80B483B000AF0346FB714C2399
:102F8800C4F24723FA791A600C37BD465DF8047B12
:102F9800704700BF80B485B000AF78603960002307
:102FA800FB604FF46053C4F202039B68FB60FB684C
:102FB80023F0EC63FB607A683B681343FA681343B9
:102FC800FB604FF46053C4F20203FA689A60143746
:102FD800BD465DF8047B704780B485B000AF78606B
:102FE80039600023FB604FF46053C4F202039B680E
:102FF800FB60FB6823F07843FB607A683B68134307
:10300800FA681343FB604FF46053C4F20203FA6892
:103018009A601437BD465DF8047B704780B485B06C
:1030280000AF78600023FB604FF46053C4F20203E2
:103038009B68FB60FB6823F00303FB60FA687B680E
:103048001343FB604FF46053C4F20203FA689A60BA
:103058001437BD465DF8047B704700BF80B400AFED
:103068004FF46053C4F202039B68DBB203F00C0315
:10307800DBB21846BD465DF8047B704780B485B066
:1030880000AF78600023FB604FF46053C4F2020382
:103098009B68FB60FB6823F0F003FB60FA687B68C1
:1030A8001343FB604FF46053C4F20203FA689A605A
:1030B8001437BD465DF8047B704700BF80B485B007
:1030C80000AF78600023FB604FF46053C4F2020342
:1030D8009B68FB60FB6823F4E053FB60FA687B683D
:1030E8001343FB604FF46053C4F20203FA689A601A
:1030F8001437BD465DF8047B704700BF80B485B0C7
:1031080000AF78600023FB604FF46053C4F2020301
:103118009B68FB60FB6823F46043FB607B68DB0013
:10312800FA681343FB604FF46053C4F20203FA6871
:103138009A601437BD465DF8047B704780B489B047
:1031480000AF78600023BB6100237B610023FB6133
:1031580002233B610023FB600223BB604FF46053F2
:10316800C4F202039B6803F00C03BB61BB69042B28
:103178000AD0082B0FD0002B5AD17A684FF410537D
:10318800C0F2F40313605AE07A6847F64003C0F2CD
:103198007D13136053E04FF46053C4F202035B687D
:1031A80003F480039B0DFB604FF46053C4F20203E9
:1031B8005B6803F03F03BB60FB68002B13D047F646
:1031C8004003C0F27D13BA68B3FBF2F24FF46053C8
:1031D800C4F20203596847F6C0730B409B0903FB0E
:1031E80002F3FB6112E04FF41053C0F2F403BA6823
:1031F800B3FBF2F24FF46053C4F20203596847F686
:10320800C0730B409B0903FB02F3FB614FF460534F
:10321800C4F202035B6803F440331B0C01335B0008
:103228003B61FA693B69B2FBF3F27B681A6006E01E
:103238007A684FF41053C0F2F403136000BF4FF4E0
:103248006053C4F202039B6803F0F003BB61BB69DF
:103258001B09BB6140F20003C2F20003BA691344C0
:103268001B78DBB27B617B681A687B69DA407B6814
:103278005A604FF46053C4F202039B6803F4E053AE
:10328800BB61BB699B0ABB6140F20003C2F2000349
:10329800BA6913441B78DBB27B617B685A687B6927
:1032A800DA407B689A604FF46053C4F202039B686B
:1032B80003F46043BB61BB695B0BBB6140F2000375
:1032C800C2F20003BA6913441B78DBB27B617B68E6
:1032D8005A687B69DA407B68DA602437BD465DF856
:1032E800047B704780B485B000AF78600023FB6032
:1032F8007B6803F44073B3F5407F17D14FF46053F4
:10330800C4F202039B68FB60FB6823F4F813FB60BC
:103318007B6823F0704323F44073FA681343FB601F
:103328004FF46053C4F20203FA689A604FF4605392
:10333800C4F202034FF46052C4F20202116F7A68B9
:10334800C2F30B020A431A671437BD465DF8047BC3
:10335800704700BF80B483B000AF0346FB7140F6EE
:103368003C63C4F24723FA791A600C37BD465DF80E
:10337800047B704780B483B000AF0346FB714FF401
:103388006463C4F24723FA791A600C37BD465DF8C6
:10339800047B704780B483B000AF78604FF4AE739D
:1033A800C4F247237A681A600C37BD465DF8047B7F
:1033B800704700BF80B483B000AF78600B46FB70E5
:1033C800FB78002B0CD04FF46053C4F202034FF487
:1033D8006052C4F20202116B7A680A431A630CE065
:1033E8004FF46053C4F202034FF46052C4F2020275
:1033F800116B7A68D2430A401A630C37BD465DF8F0
:10340800047B704780B483B000AF78600B46FB70D4
:10341800FB78002B0CD04FF46053C4F202034FF436
:103428006052C4F20202516B7A680A435A630CE094
:103438004FF46053C4F202034FF46052C4F2020224
:10344800516B7A68D2430A405A630C37BD465DF81F
:10345800047B704780B483B000AF78600B46FB7084
:10346800FB78002B0CD04FF46053C4F202034FF4E6
:103478006052C4F20202916B7A680A439A630CE0C4
:103488004FF46053C4F202034FF46052C4F20202D4
:10349800916B7A68D2430A409A630C37BD465DF84F
:1034A800047B704780B483B000AF78600B46FB7034
:1034B800FB78002B0CD04FF46053C4F202034FF496
:1034C8006052C4F20202116C7A680A431A640CE072
:1034D8004FF46053C4F202034FF46052C4F2020284
:1034E800116C7A68D2430A401A640C37BD465DF8FD
:1034F800047B704780B483B000AF78600B46FB70E4
:10350800FB78002B0CD04FF46053C4F202034FF445
:103518006052C4F20202516C7A680A435A640CE0A1
:103528004FF46053C4F202034FF46052C4F2020233
:10353800516C7A68D2430A405A640C37BD465DF82C
:10354800047B704780B483B000AF78600B46FB7093
:10355800FB78002B0CD04FF46053C4F202034FF4F5
:103568006052C4F2020211697A680A431A610CE0D7
:103578004FF46053C4F202034FF46052C4F20202E3
:1035880011697A68D2430A401A610C37BD465DF862
:10359800047B704780B483B000AF78600B46FB7043
:1035A800FB78002B0CD04FF46053C4F202034FF4A5
:1035B8006052C4F2020251697A680A435A610CE007
:1035C8004FF46053C4F202034FF46052C4F2020293
:1035D80051697A68D2430A405A610C37BD465DF892
:1035E800047B704780B483B000AF78600B46FB70F3
:1035F800FB78002B0CD04FF46053C4F202034FF455
:103608006052C4F2020291697A680A439A610CE036
:103618004FF46053C4F202034FF46052C4F2020242
:1036280091697A68D2430A409A610C37BD465DF8C1
:10363800047B704780B483B000AF78600B46FB70A2
:10364800FB78002B0CD04FF46053C4F202034FF404
:103658006052C4F20202116A7A680A431A620CE0E4
:103668004FF46053C4F202034FF46052C4F20202F2
:10367800116A7A68D2430A401A620C37BD465DF86F
:10368800047B704780B483B000AF78600B46FB7052
:10369800FB78002B0CD04FF46053C4F202034FF4B4
:1036A8006052C4F20202516A7A680A435A620CE014
:1036B8004FF46053C4F202034FF46052C4F20202A2
:1036C800516A7A68D2430A405A620C37BD465DF89F
:1036D800047B704780B483B000AF78600B46FB7002
:1036E800FB78002B0CD04FF46053C4F202034FF464
:1036F8006052C4F20202116D7A680A431A650CE03E
:103708004FF46053C4F202034FF46052C4F2020251
:10371800116D7A68D2430A401A650C37BD465DF8C8
:10372800047B704780B483B000AF78600B46FB70B1
:10373800FB78002B0CD04FF46053C4F202034FF413
:103748006052C4F20202516D7A680A435A650CE06D
:103758004FF46053C4F202034FF46052C4F2020201
:10376800516D7A68D2430A405A650C37BD465DF8F8
:10377800047B704780B483B000AF78600B46FB7061
:10378800FB78002B0CD04FF46053C4F202034FF4C3
:103798006052C4F20202916D7A680A439A650CE09D
:1037A8004FF46053C4F202034FF46052C4F20202B1
:1037B800916D7A68D2430A409A650C37BD465DF828
:1037C800047B704780B483B000AF78600B46FB7011
:1037D800FB78002B0CD04FF46053C4F202034FF473
:1037E8006052C4F20202116E7A680A431A660CE04B
:1037F8004FF46053C4F202034FF46052C4F2020261
:10380800116E7A68D2430A401A660C37BD465DF8D5
:10381800047B704780B483B000AF78600B46FB70C0
:10382800FB78002B0CD04FF46053C4F202034FF422
:103838006052C4F20202516E7A680A435A660CE07A
:103848004FF46053C4F202034FF46052C4F2020210
:10385800516E7A68D2430A405A660C37BD465DF805
:10386800047B704780B483B000AF02460B46FA7100
:10387800BB71BB79002B0ED043F60D03C4F20203D3
:1038880043F60D02C4F202021278D1B2FA790A4361
:10389800D2B21A700FE043F60D03C4F2020343F6E6
:1038A8000D02C4F202021278D1B2FA79D243D2B22E
:1038B8000A40D2B21A700C37BD465DF8047B7047D7
:1038C80080B487B000AF0346FB710023FB60002380
:1038D8007B610023FB74FB795B09DBB2FB60FB684F
:1038E800012B06D14FF46053C4F202031B687B61BD
:1038F8000FE0FB68022B06D14FF46053C4F20203B9
:103908001B6F7B6105E04FF46053C4F202035B6FE9
:103918007B61FB7903F01F03FB60FB687A6922FA7D
:1039280003F303F00103002B02D00123FB7401E031
:103938000023FB74FB7C18461C37BD465DF8047BEE
:10394800704700BF80B400AF4FF46053C4F2020365
:103958004FF46052C4F20202526F42F080725A670A
:10396800BD465DF8047B704780B485B000AF034660
:10397800FB710023FB734FF46053C4F20203DA684F
:10398800FB791340002B02D00123FB7301E00023D5
:10399800FB73FB7B18461437BD465DF8047B704704
:1039A80080B483B000AF0346FB7143F60E03C4F244
:1039B8000203FA791A700C37BD465DF8047B70472C
:1039C80080B582B000AF78607A684FF44053C4F293
:1039D80001039A420AD14FF480500121FFF752FEA9
:1039E8004FF480500021FFF74DFE22E07A684FF433
:1039F8006053C4F200039A420AD14FF48040012177
:103A0800FFF718FE4FF480400021FFF713FE10E087
:103A18007A684FF47053C4F200039A4209D14FF404
:103A280000400121FFF706FE4FF400400021FFF798
:103A380001FE0837BD4680BD80B485B000AF786010
:103A480039600023FB817B681B88FB81FB8903F4B9
:103A58004153FB813B681A883B685B8813439AB2E1
:103A68003B689B8813439AB23B68DB8813439AB23E
:103A78003B681B8913439AB23B685B8913439AB22C
:103A88003B689B8913439AB23B68DB8913439AB21C
:103A9800FB891343FB817B68FA891A807B689B8BBF
:103AA8009BB223F400639AB27B689A833B681A8AB4
:103AB8007B681A821437BD465DF8047B704700BFE7
:103AC80080B48BB000AF7860396000237B83022319
:103AD800FB840023BB8401237B840023FB61002338
:103AE8007B6100233B610023FB600023BB607B6894
:103AF8009B8B9BB223F47B6323F00F039AB27B6802
:103B08009A837B6802221A847B689B8B7B833B6841
:103B18009B68022B04D10023BB840223FB8489E029
:103B28003B689B88002B02D101237B8401E00223A0
:103B38007B844FF46053C4F202039B6803F40003D0
:103B4800002B0BD04FF46053C4F202034FF46052C1
:103B5800C4F20202926822F400029A604FF46053A1
:103B6800C4F20203D3F8842047F6C07313409B09BC
:103B7800C3F30803FB604FF46053C4F20203D3F8A5
:103B8800843003F0E0431B0F03F00703BB604FF4DE
:103B98006053C4F202035B6803F03F033B6147F6DE
:103BA8004003C0F27D133A69B3FBF2F3FA6802FBF3
:103BB80003F2BB68B2FBF3F37B613B68DB88B3F5C8
:103BC800007F0FD17B691A0A13469B0013445B00E0
:103BD8001A463B689B68B2FBF3F39BB205339BB272
:103BE800FB6111E07B8C5B017A69B2FBF3F213464F
:103BF8009B0013445B001A463B689B68B2FBF3F3D7
:103C08009BB205339BB2FB61FA694CF6CD43CCF607
:103C1800CC43A3FB0213DB08FB61FB699BB203F0F7
:103C28000103BB84BB8CFA69D31A5B08FB84BB8C89
:103C38001B02BB84FB8C012B02D9FB8CFF2B03D905
:103C48000223FB840023BB843B68DA88BB8C1343C4
:103C58009AB2FB8C13439AB27B681A843B681A8821
:103C68003B6859883B6898883B689B8903439BB2AB
:103C78000B439BB213439AB27B8B13439BB243F41F
:103C880000637B837B687A8B9A832C37BD465DF80B
:103C9800047B704780B483B000AF78607B680022F3
:103CA8001A807B6800225A807B6800229A807B6891
:103CB8000022DA807B6800221A817B6800225A8100
:103CC8007B6800229A817B680022DA817B68072260
:103CD8001A820C37BD465DF8047B704780B483B008
:103CE80000AF78607B6800221A807B6800225A80C7
:103CF8007B6800229A807B680022DA807B68022237
:103D08009A607B6800229A810C37BD465DF8047B77
:103D1800704700BF80B483B000AF78600B46FB707B
:103D2800FB78002B08D07B681B889BB243F04003CC
:103D38009AB27B681A8007E07B681B889BB223F0E5
:103D480040039AB27B681A800C37BD465DF8047B45
:103D5800704700BF80B483B000AF78600B46FB703B
:103D6800FB78002B08D07B689B8B9BB243F4806365
:103D78009AB27B689A8307E07B689B8B9BB223F49B
:103D880080639AB27B689A830C37BD465DF8047BE2
:103D9800704700BF80B483B000AF78600B467B806B
:103DA8007B681B889BB223F400639AB27B681A80F5
:103DB8007B681B889AB27B8813439AB27B681A8007
:103DC8000C37BD465DF8047B704700BF80B483B0F4
:103DD80000AF78600B467B807B88B3F5804F08D1B5
:103DE8007B681B889BB243F480439AB27B681A8035
:103DF80007E07B681B889BB223F480439AB27B68F8
:103E08001A800C37BD465DF8047B704780B483B0D8
:103E180000AF78600B467B807A884FF6FF639A4242
:103E280008D07B681B889BB243F480739AB27B6886
:103E38001A8007E07B681B889BB223F480739AB2D0
:103E48007B681A800C37BD465DF8047B704700BF5D
:103E580080B483B000AF78600B46FB70FB78002B12
:103E680008D07B689B889BB243F004039AB27B68B6
:103E78009A8007E07B689B889BB223F004039AB280
:103E88007B689A800C37BD465DF8047B704700BF9D
:103E980080B483B000AF78600B46FB70FB78002BD2
:103EA80008D07B689B889BB243F010039AB27B686A
:103EB8009A8007E07B689B889BB223F010039AB234
:103EC8007B689A800C37BD465DF8047B704700BF5D
:103ED80080B485B000AF786039600023BB810023CF
:103EE800FB817B689B8B9BB223F47B6323F00F03DE
:103EF8009AB27B689A837B6802221A847B689B8BC0
:103F0800BB813B681B88B3F5007F03D03B681B88E7
:103F1800002B03D14FF48073FB810BE03B681B88B7
:103F2800B3F5407F04D03B681B88B3F5807F01D18F
:103F38000023FB813B685A883B6899883B689B89CA
:103F48000B439BB213439AB2FB8913439AB2BB89C2
:103F580013439BB243F40063BB817B68BA899A839D
:103F68001437BD465DF8047B704700BF80B483B04A
:103F780000AF78607B689B899BB218460C37BD46BA
:103F88005DF8047B704700BF80B483B000AF7860F1
:103F98000B467B807B687A889A810C37BD465DF832
:103FA800047B704780B483B000AF78600B46FB7029
:103FB800FB78002B08D07B681B889BB243F4005326
:103FC8009AB27B681A8007E07B681B889BB223F44F
:103FD80000539AB27B681A800C37BD465DF8047BA3
:103FE800704700BF80B483B000AF78607B681B88DF
:103FF8009BB243F480539AB27B681A800C37BD4653
:104008005DF8047B704700BF80B485B000AF78606E
:104018000B46FB700023FB81FB78012B03D07B68E8
:104028001B8BFB8102E07B689B8AFB81FB8918461E
:104038001437BD465DF8047B704700BF80B483B079
:1040480000AF78607B681B8A9BB218460C37BD4668
:104058005DF8047B704700BF80B483B000AF786020
:1040680013460A467A807B707B78002B08D07B68E1
:104078009B889AB27B8813439AB27B689A8009E03E
:104088007B689B889AB27B88DB439BB213409AB2C9
:104098007B689A800C37BD465DF8047B704700BF8B
:1040A80080B485B000AF786013460A46FA70BB70DA
:1040B8000023FB810023BB81FB781B09DBB2FB815A
:1040C800FB89012202FA03F3BB81BB78002B08D0DD
:1040D8007B689B889AB2BB8913439AB27B689A80A3
:1040E80009E07B689B889AB2BB89DB439BB213408B
:1040F8009AB27B689A801437BD465DF8047B704796
:1041080080B485B000AF78600B467B800023FB73DA
:104118007B681B899AB27B8813409BB2002B02D024
:104128000123FB7301E00023FB73FB7B1846143764
:10413800BD465DF8047B704780B483B000AF7860FB
:104148000B467B807B88DB439AB27B681A810C37ED
:10415800BD465DF8047B704780B485B000AF7860D9
:104168000B46FB700023FB730023BB8100237B817C
:1041780000233B81FB7803F00F03012202FA03F3CB
:10418800BB81FB781B09DBB27B817B89012202FAA8
:1041980003F37B817B689B889AB27B8913403B81C0
:1041A8007B681B899AB2BB8913409BB2002B05D050
:1041B8003B89002B02D00123FB7301E00023FB7332
:1041C800FB7B18461437BD465DF8047B704700BF7B
:1041D80080B485B000AF78600B46FB700023FB818C
:1041E800FB7803F00F03012202FA03F3FB81FB893A
:1041F800DB439AB27B681A811437BD465DF8047BAD
:10420800704700BF80B400AF4FF47053C4F201038D
:1042180000221A604FF47053C4F2010300225A605E
:104228004FF47053C4F2010300229A604FF47053A4
:10423800C4F201030022DA604FF47053C4F20103A0
:104248004FF6FF72C0F27F025A61BD465DF8047BEB
:10425800704700BF80B485B000AF78600023FB6072
:104268004FF47053C4F20103FB607B689B79002B09
:1042780074D04FF47053C4F201034FF47052C4F277
:10428800010211687A681268D2430A401A604FF432
:104298007053C4F201034FF47052C4F20102516822
:1042A8007A681268D2430A405A607B681B79FA68B8
:1042B8001344FB60FB68FA6811687A6812680A435D
:1042C8001A604FF47053C4F201034FF47052C4F2F1
:1042D800010291687A681268D2430A409A604FF4E2
:1042E8007053C4F201034FF47052C4F20102D16852
:1042F8007A681268D2430A40DA607B685B79102BCF
:104308001AD14FF47053C4F201034FF47052C4F23F
:10431800010291687A6812680A439A604FF47053F0
:10432800C4F201034FF47052C4F20102D1687A68F2
:1043380012680A43DA601EE04FF47053C4F20103B6
:10434800FB607B685B79FA681344FB60FB68FA687A
:1043580011687A6812680A431A600CE07B681B7956
:10436800FA681344FB60FB68FA6811687A68126897
:10437800D2430A401A601437BD465DF8047B704783
:1043880080B483B000AF78607B6800221A607B68D5
:1043980000221A717B680C225A717B6800229A717C
:1043A8000C37BD465DF8047B704700BF80B483B00E
:1043B80000AF78604FF47053C4F201034FF47052A9
:1043C800C4F2010211697A680A431A610C37BD46C2
:1043D8005DF8047B704700BF80B485B000AF78609B
:1043E8000023FB734FF47053C4F201035A697B68CE
:1043F8001340002B02D00123FB7301E00023FB7361
:10440800FB7B18461437BD465DF8047B704700BF38
:1044180080B483B000AF78604FF47053C4F20103E6
:104428007A685A610C37BD465DF8047B704700BF57
:1044380080B485B000AF78600023FB730023BB60B5
:104448004FF47053C4F201031A687B681340BB60D1
:104458004FF47053C4F201035A697B681340002B70
:1044680005D0BB68002B02D00123FB7301E00023B9
:10447800FB73FB7B18461437BD465DF8047B704719
:1044880080B483B000AF78604FF47053C4F2010376
:104498007A685A610C37BD465DF8047B704700BFE7
:1044A80080B500AF4FF480400121FFF7EBF84FF4DF
:1044B80080400021FFF7E6F880BD00BF80B483B0DC
:1044C80000AF0346FB714FF46053C4F20103FA795D
:1044D8001A600C37BD465DF8047B704790B484B011
:1044E80000AF02460B46FA71BB710023FB60BB7933
:1044F80003F003039B000F2202FA03F3FB604FF45F
:104508006053C4F20103BA799208D2B210464FF44C
:104518006052C4F20102B9798908C9B2023152F86D
:104528002110FA68D2431140821C43F822104FF43C
:104538006053C4F20103BA799208D2B210464FF41C
:104548006052C4F20102B9798908C9B2023152F83D
:104558002110FC79BA7902F00302920004FA02F2FF
:104568001143821C43F822101037BD4690BC704797
:1045780080B483B000AF7860DC23C4F227237A6864
:104588001A600C37BD465DF8047B704780B483B071
:1045980000AF0346FB714FF48063C4F22723FA7916
:1045A8001A600C37BD465DF8047B704780B483B051
:1045B80000AF0023FB714FF46053C4F201031B6A80
:1045C80003F48073002B02D00123FB7101E0002368
:1045D800FB71FB7918460C37BD465DF8047B7047C4
:1045E80080B483B000AF78604FF46D43CEF200031F
:1045F8007A6842F0BF6242F40032DA600C37BD4696
:104608005DF8047B704700BF80B485B000AF786068
:104618000023FB730023BB730F237B737B68DB785A
:10462800002B40D04FF46D43CEF20003DB68DB4330
:1046380003F4E0631B0AFB73FB7BC3F10403BB7346
:104648007A7BFB7B42FA03F37B737B685B781A46C1
:10465800BB7B02FA03F3FB737B689A787B7B13407E
:10466800DAB2FB7B1343FB73FB7B1B01FB734FF439
:104678006143CEF200037A6812781344FA7B83F818
:1046880000234FF46143CEF200037A68127852098E
:10469800D2B27968097801F01F01012000FA01F10E
:1046A80043F8221011E04FF46143CEF200037A6818
:1046B80012785209D2B27968097801F01F010120F5
:1046C80000FA01F1203243F822101437BD465DF894
:1046D800047B704780B483B000AF786039604FF4D2
:1046E8006D43CEF200033A6822F0604222F07F0266
:1046F80079680A439A600C37BD465DF8047B7047B9
:1047080080B483B000AF02460B46FA71BB71BB7927
:10471800002B0CD04FF46D43CEF200034FF46D42E2
:10472800CEF200021169FA790A431A610CE04FF4DB
:104738006D43CEF200034FF46D42CEF200021169D0
:10474800FA79D2430A401A610C37BD465DF8047BFA
:10475800704700BF80B483B000AF78607B68042BDB
:104768000CD14EF21003CEF200034EF21002CEF23C
:104778000002126842F004021A600BE04EF21003C5
:10478800CEF200034EF21002CEF20002126822F0BE
:1047980004021A600C37BD465DF8047B704700BF01
:1047A800EC52000800000020240000202400002013
:1047B8005C00002080B500AF4FF46D43CEF20003DB
:1047C8004FF46D42CEF20002D2F8882042F4700213
:1047D800C3F888204FF46053C4F202034FF46052C8
:1047E800C4F20202126842F001021A604FF46053E8
:1047F800C4F2020300229A604FF46053C4F2020329
:104808004FF46052C4F20202126822F0847222F459
:1048180080321A604FF46053C4F2020343F210026C
:10482800C2F200425A604FF46053C4F202034FF4DC
:104838006052C4F20202126822F480221A604FF415
:104848006053C4F202030022DA6000F0B3F84FF4B8
:104858006D43CEF200034FF000629A6080BD00BF46
:1048680080B487B000AF00233B6100237B61022343
:10487800FB600023BB6002237B604FF46053C4F2EB
:1048880002039B6803F00C033B613B69042B0DD0CA
:10489800082B15D0002B63D140F21003C2F200039D
:1048A8004FF41052C0F2F4021A6063E040F21003B1
:1048B800C2F2000347F64002C0F27D121A6059E0C6
:1048C8004FF46053C4F202035B6803F480039B0D4A
:1048D800BB604FF46053C4F202035B6803F03F030C
:1048E8007B60BB68002B13D047F64003C0F27D13F2
:1048F8007A68B3FBF2F24FF46053C4F202035968CA
:1049080047F6C0730B409B0903FB02F37B6112E07F
:104918004FF41053C0F2F4037A68B3FBF2F24FF489
:104928006053C4F20203596847F6C0730B409B09F1
:1049380003FB02F37B614FF46053C4F202035B682C
:1049480003F440331B0C01335B00FB607A69FB689E
:10495800B2FBF3F240F21003C2F200031A6009E05E
:1049680040F21003C2F200034FF41052C0F2F402F6
:104978001A6000BF4FF46053C4F202039B6803F04F
:10498800F0031A0940F21403C2F200039B5CDBB285
:104998003B6140F21003C2F200031A683B69DA4037
:1049A80040F21003C2F200031A601C37BD465DF8DE
:1049B800047B704780B483B000AF00237B60002382
:1049C8003B604FF46053C4F202034FF46052C4F2E8
:1049D8000202126842F480321A604FF46053C4F243
:1049E80002031B6803F400333B607B6801337B6080
:1049F8003B68002B03D17B68B3F5A06FEDD14FF472
:104A08006053C4F202031B6803F40033002B02D086
:104A180001233B6001E000233B603B68012B40F031
:104A280082804FF46053C4F202034FF46052C4F220
:104A38000202126C42F080521A644FF4E043C4F24E
:104A480000034FF4E042C4F20002126842F48042CC
:104A58001A604FF46053C4F202034FF46052C4F278
:104A6800020292689A604FF46053C4F202034FF452
:104A78006052C4F20202926842F400429A604FF413
:104A88006053C4F202034FF46052C4F20202926807
:104A980042F4A0529A604FF46053C4F2020345F204
:104AA8000842C0F241725A604FF46053C4F20203E4
:104AB8004FF46052C4F20202126842F080721A6027
:104AC80000BF4FF46053C4F202031B6803F0007385
:104AD800002BF6D04FF47053C4F2020340F2056283
:104AE8001A604FF46053C4F202034FF46052C4F2E8
:104AF8000202926822F003029A604FF46053C4F2F3
:104B080002034FF46052C4F20202926842F00202B9
:104B18009A6000BF4FF46053C4F202039B6803F02D
:104B28000C03082BF6D10C37BD465DF8047B7047A3
:104B380080B500AF00F014F84FF44063C4F20203EC
:104B480010225A834FF47A7000F00EF94FF4406344
:104B5800C4F2020310221A8300F010F8FCE700BF29
:104B680080B500AF00F03AF800F054F800F074F89F
:104B780000F0EEF800F08EF880BD00BF80B500AF01
:104B880040F22403C2F200031B88002B01D100F07D
:104B980031F940F22403C2F200031B88012B01D132
:104BA80000F060F940F22403C2F200031B88022BD4
:104BB80001D100F085F940F22403C2F200031B88FA
:104BC800032B01D100F0D4F940F22403C2F2000310
:104BD8001B88032B01D900F0B7FA80BD80B582B0DD
:104BE80000AF02200121FEF7E5FB3B461846FBF724
:104BF800EDFBF0233B6001233B710123FB713B4636
:104C08004FF48060C4F202001946FBF751FB0837E5
:104C1800BD4680BD80B582B000AF08200121FEF7F7
:104C2800C9FB4FF480400121FEF764FC3B4618465F
:104C3800FBF7CCFB0F233B6000233B710123FB7187
:104C48003B464FF48050C4F202001946FBF730FB94
:104C58000837BD4680BD00BF80B582B000AF0420D4
:104C68000121FEF7A7FB3B461846FBF7AFFB4FF4C5
:104C780080433B6001233B710123FB713B464FF4AA
:104C88008060C4F202001946FBF712FB0837BD46E4
:104C980080BD00BF80B500AF0120042100F07AF884
:104CA8000120052100F076F80120062100F072F8B5
:104CB8000120072100F06EF84FF40063C4F20203EC
:104CC80001221A8340F22903C2F2000300221A705B
:104CD80040F22A03C2F2000314221A7040F22B0396
:104CE800C2F2000300221A7040F22803C2F2000345
:104CF80000221A7018E040F22803C2F200031B7861
:104D08001A4640F22C03C2F20003002123F81210C5
:104D180040F22803C2F200031B780133DAB240F2F2
:104D28002803C2F200031A7040F22803C2F20003FB
:104D38001A7840F22A03C2F200031B789A42DAD3A7
:104D480040F22403C2F2000300221A8080BD00BF93
:104D580080B500AF40200121FEF754FBFBF764FC4F
:104D68000120FBF76DFC80BD80B483B000AF786094
:104D78007B684FF4526202FB03F37B6000E000BFE4
:104D88007B685A1E7A60002BF9D10C37BD465DF856
:104D9800047B704780B483B000AF02460B46FA80AC
:104DA800BB80FB88002B10D04FF48063C4F2020351
:104DB800BA88012101FA02F292B21A834FF44063D1
:104DC800C4F2020310225A830FE04FF48063C4F246
:104DD8000203BA88012101FA02F292B25A834FF40F
:104DE8004063C4F2020310221A830C37BD465DF8F3
:104DF800047B704780B500AF00200421FFF7CAFF8D
:104E080000200521FFF7C6FF00200621FFF7C2FF9B
:104E180000200721FFF7BEFF4FF47A60FFF7A4FFD9
:104E280001200421FFF7B6FF01200521FFF7B2FF9B
:104E380001200621FFF7AEFF01200721FFF7AAFF97
:104E48004FF4FA60FFF790FF40F22403C2F2000328
:104E58001B8801339AB240F22403C2F200031A807D
:104E680080BD00BF98B500AF40F22903C2F200032D
:104E78001B781C46FBF70AFC0346DBB203F003036E
:104E88009BB204339AB240F22C03C2F2000323F817
:104E9800142040F22B03C2F2000300221A7040F2E1
:104EA8002403C2F200031B8801339AB240F22403A0
:104EB800C2F200031A804FF4FA60FFF755FF98BD5D
:104EC80080B500AF40F22803C2F2000300221A7036
:104ED80033E040F22803C2F200031B781A4640F27E
:104EE8002C03C2F2000333F8123000201946FFF7F2
:104EF80051FF4FF4FA60FFF737FF40F22803C2F280
:104F080000031B781A4640F22C03C2F2000333F860
:104F1800123001201946FFF73DFF4FF4FA70FFF7F2
:104F280023FF40F22803C2F200031B780133DAB2F0
:104F380040F22803C2F200031A7040F22803C2F2BA
:104F480000031B781A4640F22903C2F200031B78BB
:104F580001339A42BDDB40F22403C2F200031B88EE
:104F680001339AB240F22403C2F200031A8080BDD2
:104F780080B500AF4FF44060C4F202000121FBF796
:104F880061FA03461A4640F25403C2F200031A803B
:104F98004FF44060C4F202000221FBF753FA0346C3
:104FA8001A4640F25403C2F200035A804FF440609C
:104FB800C4F202000421FBF745FA03461A4640F200
:104FC8005403C2F200039A804FF44060C4F2020016
:104FD8000821FBF737FA03461A4640F25403C2F297
:104FE8000003DA8040F22803C2F2000300221A709C
:104FF80089E040F22803C2F200031B781A4640F207
:105008005403C2F2000333F81230012B6FD140F27F
:105018002803C2F200031B7804339AB240F2260335
:10502800C2F200031A8040F22B03C2F200031B787D
:105038001A4640F22C03C2F2000333F8122040F261
:105048002603C2F200031B889A424AD140F2260383
:10505800C2F200031B8800201946FFF79BFE4FF49D
:105068007A70FFF781FE40F22603C2F200031B8824
:1050780001201946FFF78EFE6420FFF775FE40F207
:105088002B03C2F200031A7840F22903C2F200038C
:105098001B789A4212D340F22403C2F20003012281
:1050A8001A8040F22903C2F200031B780133DAB2F6
:1050B80040F22903C2F200031A7018E040F22B03F1
:1050C800C2F200031B780133DAB240F22B03C2F2BA
:1050D80000031A7040F22403C2F2000303221A806C
:1050E80005E040F22403C2F2000304221A8040F2D1
:1050F8002803C2F200031B780133DAB240F2280316
:10510800C2F200031A7040F22803C2F200031B78AF
:10511800032B7FF66EAF40F25403C2F20003002265
:105128001A8040F25403C2F2000300225A8040F26F
:105138005403C2F2000300229A8040F25403C2F2E0
:1051480000030022DA8080BD80B500AF40F228035A
:10515800C2F2000300221A700FE000200421FFF7BA
:1051680019FE40F22803C2F200031B780133DAB2B9
:1051780040F22803C2F200031A7040F22803C2F278
:1051880000031B78022BE8D900200521FFF702FE57
:1051980000200621FFF7FEFD00200721FFF7FAFD9A
:1051A8004FF4FA60FFF7E0FD01200421FFF7F2FD5C
:1051B80001200521FFF7EEFD01200621FFF7EAFD9A
:1051C80001200721FFF7E6FD4FF47A70FFF7CCFDC9
:1051D80040F22803C2F200031B78032B0BD140F2E4
:1051E8002403C2F200031B8801339AB240F224035D
:1051F800C2F200031A8080BD80B584B000AF1C23C2
:105208003B7300237B730123BB730123FB7307F1FB
:105218000C031846FFF7F8F901200121FEF742F9BF
:1052280040F6B8333B8000237B804FF4FA737B60F1
:1052380000233B810023BB723B464FF08040194658
:10524800FBF79CFB4FF0804001210122FCF7EEFCAC
:105258004FF080400121FBF71FFD1037BD4680BD90
:1052680080B500AF4FF080400121FCF73DFD0346BB
:10527800002B0AD04FF080400121FCF75FFD40F27F
:105288002403C2F2000304221A8080BD002103E037
:105298000A4B5B584350043109480A4B42189A425A
:1052A800F6D3094A02E0002342F8043B074B9A422E
:1052B800F9D3FFF77FFAFFF73BFC7047EC52000881
:1052C8000000002024000020240000205C000020B2
:1052D800FEE7000000F00000001000200040008001
:0452E80001000000C1
:1052EC000000000001020304010203040607080980
:1052FC00007A030A00000000000000000102030411
:04530C00060708097F
:040000050800529508
:00000001FF
